S01A000054696D6572735F4D43414C5F4D6F64756C652E7372656355
S11300000C942A000C943C000C943C000C943C008E
S11300100C943C000C943C000C943C000C9437026F
S11300200C943C000C94E6010C94BF010C946F01F9
S11300300C943C000C943C000C943C000C943C004C
S11300400C943C000C943C000C943C000C943C003C
S11300500C943C0011241FBECFE5D8E0DEBFCDBF19
S113006020E0A0E6B0E001C01D92A437B207E1F79A
S11300700E94F2000C9478020C9400004423B9F11D
S1130080413009F06BC0813089F028F08230C9F02A
S1130090833011F108952AB381E090E002C0880F03
S11300A0991F6A95E2F7822B8ABB089527B381E0F2
S11300B090E002C0880F991F6A95E2F7822B87BBF4
S11300C0089524B381E090E002C0880F991F6A95D7
S11300D0E2F7822B84BB089521B381E090E002C053
S11300E0880F991F6A95E2F7822B81BB08958130AE
S11300F091F028F08230D9F0833029F108952AB3A1
S113010081E090E002C0880F991F6A95E2F780951C
S113011082238ABB089527B381E090E002C0880F50
S1130120991F6A95E2F78095822387BB089524B3CB
S113013081E090E002C0880F991F6A95E2F78095EC
S1130140822384BB089521B381E090E002C0880F2C
S1130150991F6A95E2F78095822381BB08958130C7
S113016089F028F08230C9F0833011F108952BB35F
S113017081E090E002C0880F991F6A95E2F7822718
S11301808BBB089528B381E090E002C0880F991FCB
S11301906A95E2F7822788BB089525B381E090E051
S11301A002C0880F991F6A95E2F7822785BB0895DC
S11301B022B381E090E002C0880F991F6A95E2F7AC
S11301C0822782BB08958FB780688FBF089541E06E
S11301D062E082E00E943E00089562E082E00E94B4
S11301E0AF0008950E94E70080E00E9407016DEED1
S11301F070E080E00E9443014FE050E060E070E076
S113020080E00E94510180E00E943001FFCF8823EA
S113021019F0813099F0089583B7886083BF83B75C
S1130220806483BF88B341E063E00E943E0083B7EB
S11302308F7E83BF83B7806283BF08958FB58E7F1F
S11302408FBD8FB58D7F8FBD8EB588608EBD8EB509
S11302508F7E8EBD0E94E30089B7806189BF0895B7
S1130260882319F0813041F0089583B7816083BFFA
S113027083B78D7F83BF08958EB581608EBD8EB5A3
S11302808D7F8EBD0895882319F0813029F008955B
S113029070937300609372007093710060937000A8
S11302A008958130D9F4403A8FE05807610571050B
S11302B0A8F4A8EEB3E09A01AB010E946D02DC0140
S11302C0CB01689415F8B695A795979587951694DC
S11302D0D1F7BC01615071097BBD6ABD08951F92BD
S11302E00F920FB60F9211242F933F934F935F9366
S11302F06F937F938F939F93AF93BF93EF93FF93EA
S11303008091640090916500A0916600B0916700AF
S11303100196A11DB11D8093640090936500A09384
S11303206600B093670040916C0050916D0060913D
S11303306E0070916F0084179507A607B70771F4D4
S1130340109264001092650010926600109267008B
S1130350E0917200F0917300099582B7FF91EF91DB
S1130360BF91AF919F918F917F916F915F914F91C9
S11303703F912F910F900FBE0F901F9018951F92D1
S11303800F920FB60F9211242F933F934F935F93C5
S11303906F937F938F939F93AF93BF93EF93FF9349
S11303A0E0917200F09173000995FF91EF91BF9174
S11303B0AF919F918F917F916F915F914F913F91F9
S11303C02F910F900FBE0F901F9018951F920F92B0
S11303D00FB60F9211242F933F934F935F936F9314
S11303E07F938F939F93AF93BF93EF93FF938091EA
S11303F0600090916100A0916200B0916300019649
S1130400A11DB11D8093600090936100A0936200D0
S1130410B0936300409168005091690060916A0054
S113042070916B0084179507A607B70779F41092AB
S11304306000109261001092620010926300E091DB
S11304407000F091710009958CB59DB5FF91EF9105
S1130450BF91AF919F918F917F916F915F914F91D8
S11304603F912F910F900FBE0F901F9018951F92E0
S11304700F920FB60F9211242F933F934F935F93D4
S11304806F937F938F939F93AF93BF93EF93FF9358
S1130490E0917000F09171000995FF91EF91BF9187
S11304A0AF919F918F917F916F915F914F913F9108
S11304B02F910F900FBE0F901F901895A29FB0011F
S11304C0B39FC001A39F700D811D1124911DB29F84
S11304D0700D811D1124911D08950E945E02A59F37
S11304E0900DB49F900DA49F800D911D112408952B
S10704F0F894FFCFAA
S9030000FC
