:100000000C942A000C943C000C943C000C943C0092
:100010000C943C000C943C000C943C000C943C0070
:100020000C943C000C943C000C943C000C94FF009D
:100030000C943C000C943C000C943C000C943C0050
:100040000C943C000C943C000C943C000C943C0040
:100050000C943C0011241FBECFE5D8E0DEBFCDBF1D
:1000600020E0A0E6B0E001C01D92A936B207E1F79A
:100070000E94F2000C94C0010C9400004423B9F1DA
:10008000413009F06BC0813089F028F08230C9F02E
:10009000833011F108952AB381E090E002C0880F07
:1000A000991F6A95E2F7822B8ABB089527B381E0F6
:1000B00090E002C0880F991F6A95E2F7822B87BBF8
:1000C000089524B381E090E002C0880F991F6A95DB
:1000D000E2F7822B84BB089521B381E090E002C057
:1000E000880F991F6A95E2F7822B81BB08958130B2
:1000F00091F028F08230D9F0833029F108952AB3A5
:1001000081E090E002C0880F991F6A95E2F7809520
:1001100082238ABB089527B381E090E002C0880F54
:10012000991F6A95E2F78095822387BB089524B3CF
:1001300081E090E002C0880F991F6A95E2F78095F0
:10014000822384BB089521B381E090E002C0880F30
:10015000991F6A95E2F78095822381BB08958130CB
:1001600089F028F08230C9F0833011F108952BB363
:1001700081E090E002C0880F991F6A95E2F782271C
:100180008BBB089528B381E090E002C0880F991FCF
:100190006A95E2F7822788BB089525B381E090E055
:1001A00002C0880F991F6A95E2F7822785BB0895E0
:1001B00022B381E090E002C0880F991F6A95E2F7B0
:1001C000822782BB08958FB780688FBF089541E072
:1001D00062E082E00E943E00089562E082E00E94B8
:1001E000AF0008950E94E7000E944C0160ED77E0A7
:1001F00080E090E00E9458010E949C01FFCF1F9276
:100200000F920FB60F9211242F933F934F935F934A
:100210006F937F938F939F93AF93BF93EF93FF93CE
:100220008091600090916100A0916200B0916300A4
:100230000196A11DB11D8093600090936100A09371
:100240006200B09363004091650050916600609138
:1002500067007091680084179507A607B70759F4DF
:100260001092600010926100109262001092630080
:100270000E94ED0082B7FF91EF91BF91AF919F91E6
:100280008F917F916F915F914F913F912F910F903F
:100290000FBE0F901F90189583B7877F83BF83B7DA
:1002A0008F7B83BF0E94E30089B7816089BF089577
:1002B0000F931F939B01AC01A8EEB3E00E94A6012F
:1002C0008B019C010F2EFEE036952795179507951B
:1002D000FA95D1F7F02D00936500109366002093F6
:1002E000670030936800DC01CB01689415F8B6957F
:1002F000A795979587951694D1F7682F6195609388
:10030000640062BF80916400882399F08091650049
:1003100090916600A0916700B09168000196A11DC0
:10032000B11D8093650090936600A0936700B09321
:1003300068001F910F91089583B7816083BF83B7D1
:100340008D7F83BF83B7846083BF08950E94B1010E
:10035000A59F900DB49F900DA49F800D911D112419
:100360000895A29FB001B39FC001A39F700D811D8E
:100370001124911DB29F700D811D1124911D0895AE
:04038000F894FFCF1F
:00000001FF
