S01A000054696D6572735F4D43414C5F4D6F64756C652E7372656355
S11300000C942A000C943C000C943C000C943C008E
S11300100C943C000C943C000C943C000C94EB01BC
S11300200C943C000C949A010C9473010C942301DD
S11300300C943C000C943C000C943C000C943C004C
S11300400C943C000C943C000C943C000C943C003C
S11300500C943C0011241FBECFE5D8E0DEBFCDBF19
S113006020E0A0E6B0E001C01D92A437B207E1F79A
S11300700E94AF000C9421020C9400004423B9F1B7
S1130080413009F06BC0813089F028F08230C9F02A
S1130090833011F108952AB381E090E002C0880F03
S11300A0991F6A95E2F7822B8ABB089527B381E0F2
S11300B090E002C0880F991F6A95E2F7822B87BBF4
S11300C0089524B381E090E002C0880F991F6A95D7
S11300D0E2F7822B84BB089521B381E090E002C053
S11300E0880F991F6A95E2F7822B81BB08958130AE
S11300F091F028F08230D9F0833029F108952AB3A1
S113010081E090E002C0880F991F6A95E2F780951C
S113011082238ABB089527B381E090E002C0880F50
S1130120991F6A95E2F78095822387BB089524B3CB
S113013081E090E002C0880F991F6A95E2F78095EC
S1130140822384BB089521B381E090E002C0880F2C
S1130150991F6A95E2F78095822381BB089581E017
S11301600E94BB0064E670E081E00E94FD0081E033
S11301700E94EA00FFCF882319F0813099F0089596
S113018083B7886083BF83B7806483BF41E063E043
S113019081E00E943E0083B78F7E83BF83B7806275
S11301A083BF08958FB581608FBD8FB58D7F8FBD5F
S11301B08EB588608EBD8EB58F7E8EBD41E065E0C4
S11301C083E00E943E008FB58F7B8FBD8FB5806822
S11301D08FBD0895882319F0813041F0089583B7C5
S11301E0816083BF83B78D7F83BF08958EB581609F
S11301F08EBD8EB58D7F8EBD0895882319F0813014
S113020089F0089520E030E0362F3695279536950D
S11302102795ABE7B4E10E94120296958795815029
S11302208CBF089520E030E0362F3695279536951B
S11302302795ABE7B4E10E94120296958795019742
S11302409BBD8ABD08951F920F920FB60F92112481
S11302502F933F934F935F936F937F938F939F93CA
S1130260AF93BF93EF93FF938091640090916500E7
S1130270A0916600B09167000196A11DB11D809305
S1130280640090936500A0936600B093670040916A
S11302906C0050916D0060916E0070916F00841736
S11302A09507A607B70771F41092640010926500D1
S11302B01092660010926700E0917200F091730052
S11302C0099582B7FF91EF91BF91AF919F918F9163
S11302D07F916F915F914F913F912F910F900FBE3E
S11302E00F901F9018951F920F920FB60F92112422
S11302F02F933F934F935F936F937F938F939F932A
S1130300AF93BF93EF93FF93E0917200F09173006A
S11303100995FF91EF91BF91AF919F918F917F913B
S11303206F915F914F913F912F910F900FBE0F905E
S11303301F9018951F920F920FB60F9211242F93AE
S11303403F934F935F936F937F938F939F93AF9359
S1130350BF93EF93FF938091600090916100A0910F
S11303606200B09163000196A11DB11D80936000ED
S113037090936100A0936200B09363004091680081
S11303805091690060916A0070916B008417950721
S1130390A607B70779F410926000109261001092DA
S11303A0620010926300E0917000F0917100099571
S11303B08CB59DB5FF91EF91BF91AF919F918F91B6
S11303C07F916F915F914F913F912F910F900FBE4D
S11303D00F901F9018951F920F920FB60F92112431
S11303E02F933F934F935F936F937F938F939F9339
S11303F0AF93BF93EF93FF93E0917000F09171007E
S11304000995FF91EF91BF91AF919F918F917F914A
S11304106F915F914F913F912F910F900FBE0F906D
S11304201F901895A29FB001B39FC001A39F700DA8
S1130430811D1124911DB29F700D811D1124911DE8
S10904400895F894FFCFBB
S9030000FC
