S01300004558545F494E545F48414C2E73726563A2
S11300000C942A000C94FB000C9434000C943400DF
S11300100C9434000C9434000C9434000C9434008C
S11300200C9434000C9434000C9434000C9434007C
S11300300C9434000C9434000C9434000C9434006C
S11300400C9434000C9434000C9434000C9434005C
S11300500C94340011241FBECFE5D8E0DEBFCDBF21
S11300600E94F6000C941F010C9400004423B9F183
S1130070413009F06BC0813089F028F08230C9F03A
S1130080833011F108952AB381E090E002C0880F13
S1130090991F6A95E2F7822B8ABB089527B381E002
S11300A090E002C0880F991F6A95E2F7822B87BB04
S11300B0089524B381E090E002C0880F991F6A95E7
S11300C0E2F7822B84BB089521B381E090E002C063
S11300D0880F991F6A95E2F7822B81BB08958130BE
S11300E091F028F08230D9F0833029F108952AB3B1
S11300F081E090E002C0880F991F6A95E2F780952D
S113010082238ABB089527B381E090E002C0880F60
S1130110991F6A95E2F78095822387BB089524B3DB
S113012081E090E002C0880F991F6A95E2F78095FC
S1130130822384BB089521B381E090E002C0880F3C
S1130140991F6A95E2F78095822381BB08958130D7
S113015089F028F08230C9F0833011F108952BB36F
S113016081E090E002C0880F991F6A95E2F7822728
S11301708BBB089528B381E090E002C0880F991FDB
S11301806A95E2F7822788BB089525B381E090E061
S113019002C0880F991F6A95E2F7822785BB0895EC
S11301A022B381E090E002C0880F991F6A95E2F7BC
S11301B0822782BB08958FB780688FBF08950E94FD
S11301C0DB008BB780648BBF85B7816085BF85B743
S11301D0826085BF089541E062E082E00E943600BB
S11301E0089562E082E00E94A70008950E94EB0057
S11301F00E94DF00FFCF1F920F920FB60F921124BF
S11302002F933F934F935F936F937F938F939F931A
S1130210AF93BF93EF93FF930E94F100FF91EF918F
S1130220BF91AF919F918F917F916F915F914F910A
S11302303F912F910F900FBE0F901F901895F89437
S1050240FFCFEA
S9030000FC
