:100000000C942A000C943C000C943C000C943C0092
:100010000C943C000C943C000C943C000C940602A4
:100020000C943C000C94B5010C948E010C943E0190
:100030000C943C000C943C000C943C000C943C0050
:100040000C943C000C943C000C943C000C943C0040
:100050000C943C0011241FBECFE5D8E0DEBFCDBF1D
:1000600020E0A0E6B0E001C01D92A437B207E1F79E
:100070000E94AF000C947D020C9400004423B9F15F
:10008000413009F06BC0813089F028F08230C9F02E
:10009000833011F108952AB381E090E002C0880F07
:1000A000991F6A95E2F7822B8ABB089527B381E0F6
:1000B00090E002C0880F991F6A95E2F7822B87BBF8
:1000C000089524B381E090E002C0880F991F6A95DB
:1000D000E2F7822B84BB089521B381E090E002C057
:1000E000880F991F6A95E2F7822B81BB08958130B2
:1000F00091F028F08230D9F0833029F108952AB3A5
:1001000081E090E002C0880F991F6A95E2F7809520
:1001100082238ABB089527B381E090E002C0880F54
:10012000991F6A95E2F78095822387BB089524B3CF
:1001300081E090E002C0880F991F6A95E2F78095F0
:10014000822384BB089521B381E090E002C0880F30
:10015000991F6A95E2F78095822381BB089581E01B
:100160000E94BF0082E390E00E94040181E00E94AF
:10017000EE0067E070E081E00E941201FFCF88236B
:1001800019F0813099F0089583B7886083BF83B7F1
:10019000806483BF41E063E081E00E943E0083B75A
:1001A0008F7E83BF83B7806283BF08958FB58E7FB4
:1001B0008FBD8FB582608FBD8EB588608EBD8EB5C8
:1001C00080618EBD41E065E083E00E943E008FB516
:1001D0008F7B8FBD8FB580688FBD0895882319F000
:1001E000813041F0089583B7816083BF83B78D7FED
:1001F00083BF08958EB58E7F8EBD8EB58D7F8EBDEB
:100200008EB584608EBD089520E030E0382F40E048
:1002100050E060E074E284EF90E00E942D0237BD70
:1002200026BD0895882319F0813089F00895762F2E
:1002300066279B013695279536952795ABE7B4E160
:100240000E944C029695879581508CBF089582EE4E
:1002500094E0689F9001699F300D789F300D1124C4
:100260003695279536952795ABE7B4E10E944C0269
:100270009695879501979BBD8ABD08951F920F9211
:100280000FB60F9211242F933F934F935F936F9369
:100290007F938F939F93AF93BF93EF93FF9380913F
:1002A000640090916500A0916600B091670001968E
:1002B000A11DB11D8093640090936500A09366001A
:1002C000B093670040916C0050916D0060916E009A
:1002D00070916F0084179507A607B70771F4109205
:1002E0006400109265001092660010926700E09121
:1002F0007200F0917300099582B7FF91EF91BF9161
:10030000AF919F918F917F916F915F914F913F91AD
:100310002F910F900FBE0F901F9018951F920F9264
:100320000FB60F9211242F933F934F935F936F93C8
:100330007F938F939F93AF93BF93EF93FF93E0913E
:100340007200F09173000995FF91EF91BF91AF9109
:100350009F918F917F916F915F914F913F912F91DD
:100360000F900FBE0F901F9018951F920F920FB60F
:100370000F9211242F933F934F935F936F937F932B
:100380008F939F93AF93BF93EF93FF938091600000
:1003900090916100A0916200B09163000196A11D4F
:1003A000B11D8093600090936100A0936200B093B0
:1003B0006300409168005091690060916A007091FB
:1003C0006B0084179507A607B70779F410926000B1
:1003D000109261001092620010926300E091700030
:1003E000F091710009958CB59DB5FF91EF91BF918A
:1003F000AF919F918F917F916F915F914F913F91BD
:100400002F910F900FBE0F901F9018951F920F9273
:100410000FB60F9211242F933F934F935F936F93D7
:100420007F938F939F93AF93BF93EF93FF93E0914D
:100430007000F09171000995FF91EF91BF91AF911C
:100440009F918F917F916F915F914F913F912F91EC
:100450000F900FBE0F901F901895052E97FB1EF45E
:1004600000940E94440257FD07D00E945B0207FCE3
:1004700003D04EF40C94440250954095309521954C
:100480003F4F4F4F5F4F08959095809570956195C0
:100490007F4F8F4F9F4F0895A29FB001B39FC00120
:1004A000A39F700D811D1124911DB29F700D811DA0
:1004B0001124911D0895A1E21A2EAA1BBB1BFD0158
:1004C0000DC0AA1FBB1FEE1FFF1FA217B307E40733
:1004D000F50720F0A21BB30BE40BF50B661F771F8B
:1004E000881F991F1A9469F760957095809590956B
:0E04F0009B01AC01BD01CF010895F894FFCF30
:00000001FF
