:100000000C942A000C9434000C9434000C943400AA
:100010000C9434000C9434000C9434000C94340090
:100020000C9434000C9434000C9434000C94340080
:100030000C9434000C9434000C9434000C94340070
:100040000C9434000C9434000C9434000C94340060
:100050000C94340011241FBECFE5D8E0DEBFCDBF25
:100060000E94A5010C94D6010C940000813051F03F
:1000700018F0823069F0089540E060E081E00E946D
:100080009F00089540E064E081E00E949F00089591
:1000900040E062E083E00E949F000895CF93DF93E9
:1000A0001F92CDB7DEB78130D1F018F0823069F100
:1000B00042C0AE014F5F5F4F60E081E00E941001DF
:1000C000B09B0BC02FEF89EF90E021508040904013
:1000D000E1F700C00000B099F5CF89812CC0AE01D6
:1000E0004F5F5F4F64E081E00E941001B49B0BC042
:1000F0002FEF89EF90E0215080409040E1F700C061
:100100000000B499F5CF898116C0AE014F5F5F4FF3
:1001100062E083E00E941001829B0BC02FEF89EF09
:1001200090E0215080409040E1F700C000008299AB
:10013000F5CF898100C00F90DF91CF9108954423BE
:10014000B9F1413009F06BC0813089F028F082307C
:10015000C9F0833011F108952AB381E090E002C024
:10016000880F991F6A95E2F7822B8ABB089527B3FF
:1001700081E090E002C0880F991F6A95E2F7822B18
:1001800087BB089524B381E090E002C0880F991FD7
:100190006A95E2F7822B84BB089521B381E090E059
:1001A00002C0880F991F6A95E2F7822B81BB0895E0
:1001B000813091F028F08230D9F0833029F1089510
:1001C0002AB381E090E002C0880F991F6A95E2F798
:1001D000809582238ABB089527B381E090E002C016
:1001E000880F991F6A95E2F78095822387BB08954F
:1001F00024B381E090E002C0880F991F6A95E2F76E
:100200008095822384BB089521B381E090E002C0F1
:10021000880F991F6A95E2F78095822381BB089524
:10022000813089F028F08230C9F0833011F10895CF
:1002300089B390E002C0959587956A95E2F7817041
:10024000FA018083089586B390E002C09595879562
:100250006A95E2F78170FA018083089583B390E094
:1002600002C0959587956A95E2F78170FA018083BF
:10027000089580B390E002C0959587956A95E2F75E
:100280008170FA0180830895813089F028F08230EE
:10029000C9F0833011F108952BB381E090E002C0E2
:1002A000880F991F6A95E2F782278BBB089528B3C0
:1002B00081E090E002C0880F991F6A95E2F78227DB
:1002C00088BB089525B381E090E002C0880F991F94
:1002D0006A95E2F7822785BB089522B381E090E01A
:1002E00002C0880F991F6A95E2F7822782BB0895A2
:1002F000813051F018F0823069F0089541E062E0F9
:1003000082E00E949F00089541E067E082E00E9441
:100310009F00089541E063E083E00E949F000895FC
:10032000813049F018F0823059F0089562E082E09F
:100330000E944401089567E082E00E94440108950C
:1003400063E083E00E944401089580E090E00E9411
:10035000780180E00E94360081E090E00E94780100
:1003600081E00E94360082E090E00E94780182E005
:100370000E94360080E00E944E00813021F480E02F
:1003800090E00E94900181E00E944E00813021F4B3
:1003900081E090E00E94900182E00E944E00813056
:1003A00049F782E090E00E949001E4CFF894FFCFFB
:00000001FF
