S0130000536572766F5F4D6F746F722E7372656392
S11300000C942A000C943C000C943C000C943C008E
S11300100C943C000C943C000C943C000C942B027B
S11300200C943C000C94DA010C94B3010C9463011D
S11300300C943C000C943C000C943C000C943C004C
S11300400C943C000C943C000C943C000C943C003C
S11300500C943C0011241FBECFE5D8E0DEBFCDBF19
S113006020E0A0E6B0E001C01D92A437B207E1F79A
S11300700E94AF000C945F040C9400004423B9F177
S1130080413009F06BC0813089F028F08230C9F02A
S1130090833011F108952AB381E090E002C0880F03
S11300A0991F6A95E2F7822B8ABB089527B381E0F2
S11300B090E002C0880F991F6A95E2F7822B87BBF4
S11300C0089524B381E090E002C0880F991F6A95D7
S11300D0E2F7822B84BB089521B381E090E002C053
S11300E0880F991F6A95E2F7822B81BB08958130AE
S11300F091F028F08230D9F0833029F108952AB3A1
S113010081E090E002C0880F991F6A95E2F780951C
S113011082238ABB089527B381E090E002C0880F50
S1130120991F6A95E2F78095822387BB089524B3CB
S113013081E090E002C0880F991F6A95E2F78095EC
S1130140822384BB089521B381E090E002C0880F2C
S1130150991F6A95E2F78095822381BB08950E94D6
S1130160B80060E070E080EA91E40E94C300FFCF31
S113017081E00E94DB0082E390E00E94200181E0A4
S11301800E940A01089520E030E040EA50E40E9411
S1130190B10320E030E044E353E40E94BF0220E0D6
S11301A030E040EA50E40E945302AB01BC0181E01C
S11301B00E942E010895882319F0813099F0089542
S11301C083B7886083BF83B7806483BF41E063E003
S11301D081E00E943E0083B78F7E83BF83B7806235
S11301E083BF08958FB58E7F8FBD8FB582608FBD1D
S11301F08EB588608EBD8EB580618EBD41E065E0B0
S113020083E00E943E008FB58F7B8FBD8FB58068E1
S11302108FBD0895882319F0813041F0089583B784
S1130220816083BF83B78D7F83BF08958EB58E7F32
S11302308EBD8EB58D7F8EBD8EB584608EBD0895C6
S113024020E030E0382F40E050E060E074E284EFDA
S113025090E00E941E0437BD26BD0895282FCB01CF
S1130260BA01222319F02130B9F0089520E030E0DA
S113027040E853E40E94B10320E030E048EC52E44B
S11302800E94BF0220E030E040E85FE30E94520297
S11302900E9431036CBF089520E030E44CE954E43B
S11302A00E94B10320E030E048EC52E40E94BF0217
S11302B020E030E040E85FE30E9452020E943103F4
S11302C07BBD6ABD08951F920F920FB60F92112441
S11302D02F933F934F935F936F937F938F939F934A
S11302E0AF93BF93EF93FF93809164009091650067
S11302F0A0916600B09167000196A11DB11D809385
S1130300640090936500A0936600B09367004091E9
S11303106C0050916D0060916E0070916F008417B5
S11303209507A607B70771F4109264001092650050
S11303301092660010926700E0917200F0917300D1
S1130340099582B7FF91EF91BF91AF919F918F91E2
S11303507F916F915F914F913F912F910F900FBEBD
S11303600F901F9018951F920F920FB60F921124A1
S11303702F933F934F935F936F937F938F939F93A9
S1130380AF93BF93EF93FF93E0917200F0917300EA
S11303900995FF91EF91BF91AF919F918F917F91BB
S11303A06F915F914F913F912F910F900FBE0F90DE
S11303B01F9018951F920F920FB60F9211242F932E
S11303C03F934F935F936F937F938F939F93AF93D9
S11303D0BF93EF93FF938091600090916100A0918F
S11303E06200B09163000196A11DB11D809360006D
S11303F090936100A0936200B09363004091680001
S11304005091690060916A0070916B0084179507A0
S1130410A607B70779F41092600010926100109259
S1130420620010926300E0917000F09171000995F0
S11304308CB59DB5FF91EF91BF91AF919F918F9135
S11304407F916F915F914F913F912F910F900FBECC
S11304500F901F9018951F920F920FB60F921124B0
S11304602F933F934F935F936F937F938F939F93B8
S1130470AF93BF93EF93FF93E0917000F0917100FD
S11304800995FF91EF91BF91AF919F918F917F91CA
S11304906F915F914F913F912F910F900FBE0F90ED
S11304A01F9018955058BB27AA270E946A020C94E3
S11304B077030E94690338F00E94700320F039F436
S11304C09F3F19F426F40C9466030EF4E095E7FBC1
S11304D00C946003E92F0E94880358F3BA1762074B
S11304E073078407950720F079F4A6F50C94AA0302
S11304F00EF4E0950B2EBA2FA02D0B01B90190013B
S11305000C01CA01A0011124FF27591B99F0593F7E
S113051050F4503E68F11A16F040A22F232F342FC6
S11305204427585FF3CF469537952795A795F04014
S11305305395C9F77EF41F16BA0B620B730B840B29
S1130540BAF09150A1F0FF0FBB1F661F771F881FE1
S1130550C2F70EC0BA0F621F731F841F48F4879539
S113056077956795B795F7959E3F08F0B0CF93952B
S1130570880F08F09927EE0F9795879508950E94A4
S1130580D3020C9477030E94700358F00E9469030D
S113059040F029F45F3F29F00C94600351110C944E
S11305A0AB030C9466030E94880368F39923B1F3A8
S11305B0552391F3951B550BBB27AA276217730785
S11305C0840738F09F5F5F4F220F331F441FAA1F19
S11305D0A9F335D00E2E3AF0E0E832D091505040D5
S11305E0E695001CCAF72BD0FE2F29D0660F771F83
S11305F0881FBB1F261737074807AB07B0E809F069
S1130600BB0B802DBF01FF2793585F4F3AF09E3FED
S1130610510578F00C9460030C94AB035F3FE4F352
S1130620983ED4F3869577956795B795F7959F5F30
S1130630C9F7880F911D9695879597F90895E1E07C
S1130640660F771F881FBB1F621773078407BA07DB
S113065020F0621B730B840BBA0BEE1F88F7E09536
S113066008950E94900388F09F5798F0B92F992716
S1130670B751B0F0E1F0660F771F881F991F1AF089
S1130680BA95C9F714C0B13091F00E94AA03B1E041
S113069008950C94AA03672F782F8827B85F39F040
S11306A0B93FCCF3869577956795B395D9F73EF422
S11306B090958095709561957F4F8F4F9F4F0895CA
S11306C097F99F6780E870E060E008959FEF80EC01
S11306D0089500240A9416161706180609060895A4
S11306E000240A9412161306140605060895092E0A
S11306F00394000C11F4882352F0BB0F40F4BF2B79
S113070011F460FF04C06F5F7F4F8F4F9F4F0895B8
S113071057FD9058440F551F59F05F3F71F04795AE
S1130720880F97FB991F61F09F3F79F08795089593
S1130730121613061406551FF2CF4695F1DF08C0B2
S1130740161617061806991FF1CF869571056105CF
S113075008940895E894BB2766277727CB0197F977
S113076008950E94C4030C9477030E94690338F02F
S11307700E94700320F0952311F00C9460030C94F4
S1130780660311240C94AB030E94880370F3959FB5
S1130790C1F3950F50E0551F629FF001729FBB2774
S11307A0F00DB11D639FAA27F00DB11DAA1F649F10
S11307B06627B00DA11D661F829F2227B00DA11DC3
S11307C0621F739FB00DA11D621F839FA00D611D49
S11307D0221F749F3327A00D611D231F849F600D6A
S11307E0211D822F762F6A2F11249F5750409AF093
S11307F0F1F088234AF0EE0FFF1FBB1F661F771F1F
S1130800881F91505040A9F79E3F510580F00C94E9
S113081060030C94AB035F3FE4F3983ED4F38695F6
S113082077956795B795F795E7959F5FC1F7FE2B89
S1130830880F911D9695879597F90895052E97FB36
S11308401EF400940E94350457FD07D00E943D0415
S113085007FC03D04EF40C94350450954095309524
S113086021953F4F4F4F5F4F089590958095709518
S113087061957F4F8F4F9F4F0895A1E21A2EAA1BB7
S1130880BB1BFD010DC0AA1FBB1FEE1FFF1FA2173C
S1130890B307E407F50720F0A21BB30BE40BF50B39
S11308A0661F771F881F991F1A9469F760957095C2
S11308B0809590959B01AC01BD01CF010895F894FA
S10508C0FFCF64
S9030000FC
