:100000000C942A000C943C000C943C000C943C0092
:100010000C943C000C943C000C943C000C94240385
:100020000C943C000C94D3020C94AC020C945C0233
:100030000C943C000C943C000C943C000C943C0050
:100040000C943C000C943C000C943C000C943C0040
:100050000C943C0011241FBECFE5D8E0DEBFCDBF1D
:1000600020E0A0E6B0E001C01D92A437B207E1F79E
:100070000E94AE010C94A6030C94000080E00E9444
:10008000CB0141E063E082E00E94980041E064E03F
:1000900082E00E949800089580E00E94F501089592
:1000A00040E063E082E00E94090140E064E082E019
:1000B0000E9409010895682F70E080E00E943702D5
:1000C0000895882319F0813061F0089541E063E0DC
:1000D00082E00E94090140E064E082E00E940901A0
:1000E000089541E063E082E00E94090141E064E09C
:1000F00082E00E9409010895CF93DF9300D0CDB72D
:10010000DEB71A821982AE014F5F5F4F63E082E073
:100110000E947A0189819A81019719F40E94500006
:1001200002C00E944C000F900F90DF91CF91089574
:100130004423B9F1413009F06BC0813089F028F0D7
:100140008230C9F0833011F108952AB381E090E044
:1001500002C0880F991F6A95E2F7822B8ABB089527
:1001600027B381E090E002C0880F991F6A95E2F7FB
:10017000822B87BB089524B381E090E002C0880FF2
:10018000991F6A95E2F7822B84BB089521B381E021
:1001900090E002C0880F991F6A95E2F7822B81BB1D
:1001A0000895813091F028F08230D9F0833029F120
:1001B00008952AB381E090E002C0880F991F6A95E4
:1001C000E2F7809582238ABB089527B381E090E00F
:1001D00002C0880F991F6A95E2F78095822387BB3A
:1001E000089524B381E090E002C0880F991F6A95BA
:1001F000E2F78095822384BB089521B381E090E0EB
:1002000002C0880F991F6A95E2F78095822381BB0F
:1002100008954423B9F1413009F06BC0813089F071
:1002200028F08230C9F0833011F108952BB381E0BA
:1002300090E002C0880F991F6A95E2F7822B8BBB72
:10024000089528B381E090E002C0880F991F6A9555
:10025000E2F7822B88BB089525B381E090E002C0CD
:10026000880F991F6A95E2F7822B85BB089522B308
:1002700081E090E002C0880F991F6A95E2F7822B17
:1002800082BB0895813091F028F08230D9F083301C
:1002900029F108952BB381E090E002C0880F991FE7
:1002A0006A95E2F7809582238BBB089528B381E09D
:1002B00090E002C0880F991F6A95E2F7809582232B
:1002C00088BB089525B381E090E002C0880F991F94
:1002D0006A95E2F78095822385BB089522B381E079
:1002E00090E002C0880F991F6A95E2F780958223FB
:1002F00082BB0895813089F028F08230C9F08330C4
:1003000011F1089589B390E002C0959587956A959B
:10031000E2F78170FA018083089586B390E002C00D
:10032000959587956A95E2F78170FA018083089523
:1003300083B390E002C0959587956A95E2F7817046
:10034000FA018083089580B390E002C09595879567
:100350006A95E2F78170FA01808308950E943E0059
:1003600081E00E94610084E60E945B000E944C00D4
:1003700081E00E94CB0148EE53E060E070E081E054
:100380000E9419026CE770E081E00E940B0281E09C
:100390000E94F501F0CF882319F0813099F008957B
:1003A00083B7886083BF83B7806483BF41E063E025
:1003B00081E00E94980083B78F7E83BF83B78062FD
:1003C00083BF08958FB58E7F8FBD8FB58D7F8FBD15
:1003D0008EB588608EBD8EB58F7E8EBD8FB78068DE
:1003E0008FBF89B7806189BF0895882319F0813054
:1003F00041F0089583B7816083BF83B78D7F83BF4A
:1004000008958EB581608EBD8EB58D7F8EBD8EB503
:1004100084608EBD0895882319F0813029F00895F5
:10042000709373006093720070937100609370001A
:1004300008958130D9F4403A8FE05807610571057D
:10044000A8F4A8EEB3E09A01AB010E947903DC01A5
:10045000CB01689415F8B695A7959795879516944E
:10046000D1F7BC01615071097BBD6ABD0895882335
:1004700019F0813089F00895762F66279B01369513
:10048000279536952795ABE7B4E10E946A039695C8
:10049000879581508CBF0895CB01A0E0B0E077270D
:1004A000662724E630E040E050E00E944B032150F4
:1004B00031093BBD2ABD08951F920F920FB60F92CE
:1004C00011242F933F934F935F936F937F938F9359
:1004D0009F93AF93BF93EF93FF93809164009091AC
:1004E0006500A0916600B09167000196A11DB11D45
:1004F0008093640090936500A0936600B0936700BA
:1005000040916C0050916D0060916E0070916F0091
:1005100084179507A607B70771F41092640010922C
:1005200065001092660010926700E0917200F091F1
:100530007300099582B7FF91EF91BF91AF919F91A1
:100540008F917F916F915F914F913F912F910F907C
:100550000FBE0F901F9018951F920F920FB60F921B
:1005600011242F933F934F935F936F937F938F93B8
:100570009F93AF93BF93EF93FF93E0917200F0913D
:1005800073000995FF91EF91BF91AF919F918F916A
:100590007F916F915F914F913F912F910F900FBE7F
:1005A0000F901F9018951F920F920FB60F92112463
:1005B0002F933F934F935F936F937F938F939F936B
:1005C000AF93BF93EF93FF93809160009091610090
:1005D000A0916200B09163000196A11DB11D8093AE
:1005E000600090936100A0936200B093630040911B
:1005F00068005091690060916A0070916B008417E7
:100600009507A607B70779F4109260001092610071
:100610001092620010926300E0917000F0917100FE
:1006200009958CB59DB5FF91EF91BF91AF919F91C9
:100630008F917F916F915F914F913F912F910F908B
:100640000FBE0F901F9018951F920F920FB60F922A
:1006500011242F933F934F935F936F937F938F93C7
:100660009F93AF93BF93EF93FF93E0917000F0914E
:1006700071000995FF91EF91BF91AF919F918F917B
:100680007F916F915F914F913F912F910F900FBE8E
:100690000F901F901895052E97FB1EF400940E9452
:1006A000620357FD07D00E94840307FC03D04EF479
:1006B0000C94620350954095309521953F4F4F4FD4
:1006C0005F4F089590958095709561957F4F8F4FFE
:1006D0009F4F0895A29FB001B39FC001A39F700DCB
:1006E000811D1124911DB29F700D811D1124911D3A
:1006F00008950E946A03A59F900DB49F900DA49F3A
:10070000800D911D11240895A1E21A2EAA1BBB1B76
:10071000FD010DC0AA1FBB1FEE1FFF1FA217B307CD
:10072000E407F50720F0A21BB30BE40BF50B661FE3
:10073000771F881F991F1A9469F7609570958095A7
:1007400090959B01AC01BD01CF010895F894FFCFB6
:00000001FF
